{
  "contractName": "Logic",
  "abi": [
    {
      "constant": true,
      "inputs": [
        {
          "name": "a",
          "type": "uint256"
        },
        {
          "name": "b",
          "type": "uint256"
        }
      ],
      "name": "calculate",
      "outputs": [
        {
          "name": "",
          "type": "uint256"
        }
      ],
      "payable": false,
      "stateMutability": "pure",
      "type": "function"
    }
  ],
  "bytecode": "0x608060405234801561001057600080fd5b5060c58061001f6000396000f300608060405260043610603f576000357c0100000000000000000000000000000000000000000000000000000000900463ffffffff1680638dfa4363146044575b600080fd5b348015604f57600080fd5b5060766004803603810190808035906020019092919080359060200190929190505050608c565b6040518082815260200191505060405180910390f35b60008183029050929150505600a165627a7a723058206af5f983678b91727b774b5b836863d9bba9852601176cc4ecfcec30e0ff94a90029",
  "source": "pragma solidity ^0.4.24;\r\n\r\ncontract Logic {\r\n  function calculate(uint a, uint b) pure external returns (uint) {\r\n    return a * b;\r\n  }\r\n}\r\n",
  "sourcePath": "G:\\workspace\\test\\contracts\\Logic.sol",
  "compiler": {
    "name": "solc",
    "version": "0.4.24+commit.e67f0147.Emscripten.clang"
  },
  "schemaVersion": "2.0.0",
  "updatedAt": "2018-06-02T18:12:42.944Z"
}