{
  "contractName": "Proxy",
  "abi": [
    {
      "constant": true,
      "inputs": [],
      "name": "logic",
      "outputs": [
        {
          "name": "",
          "type": "address"
        }
      ],
      "payable": false,
      "stateMutability": "view",
      "type": "function"
    },
    {
      "inputs": [
        {
          "name": "_logic",
          "type": "address"
        }
      ],
      "payable": false,
      "stateMutability": "nonpayable",
      "type": "constructor"
    },
    {
      "constant": true,
      "inputs": [
        {
          "name": "a",
          "type": "uint256"
        },
        {
          "name": "b",
          "type": "uint256"
        }
      ],
      "name": "calculate",
      "outputs": [
        {
          "name": "",
          "type": "uint256"
        }
      ],
      "payable": false,
      "stateMutability": "view",
      "type": "function"
    },
    {
      "constant": false,
      "inputs": [
        {
          "name": "_logic",
          "type": "address"
        }
      ],
      "name": "upgrade",
      "outputs": [],
      "payable": false,
      "stateMutability": "nonpayable",
      "type": "function"
    }
  ],
  "bytecode": "0x608060405234801561001057600080fd5b506040516020806103618339810180604052810190808051906020019092919050505061004b81610051640100000000026401000000009004565b50610094565b806000806101000a81548173ffffffffffffffffffffffffffffffffffffffff021916908373ffffffffffffffffffffffffffffffffffffffff16021790555050565b6102be806100a36000396000f300608060405260043610610057576000357c0100000000000000000000000000000000000000000000000000000000900463ffffffff1680630900f0101461005c5780638dfa43631461009f578063d7dfa0dd146100ea575b600080fd5b34801561006857600080fd5b5061009d600480360381019080803573ffffffffffffffffffffffffffffffffffffffff169060200190929190505050610141565b005b3480156100ab57600080fd5b506100d4600480360381019080803590602001909291908035906020019092919050505061014d565b6040518082815260200191505060405180910390f35b3480156100f657600080fd5b506100ff61022a565b604051808273ffffffffffffffffffffffffffffffffffffffff1673ffffffffffffffffffffffffffffffffffffffff16815260200191505060405180910390f35b61014a8161024f565b50565b60008060009054906101000a900473ffffffffffffffffffffffffffffffffffffffff1673ffffffffffffffffffffffffffffffffffffffff16638dfa436384846040518363ffffffff167c01000000000000000000000000000000000000000000000000000000000281526004018083815260200182815260200192505050602060405180830381600087803b1580156101e757600080fd5b505af11580156101fb573d6000803e3d6000fd5b505050506040513d602081101561021157600080fd5b8101908080519060200190929190505050905092915050565b6000809054906101000a900473ffffffffffffffffffffffffffffffffffffffff1681565b806000806101000a81548173ffffffffffffffffffffffffffffffffffffffff021916908373ffffffffffffffffffffffffffffffffffffffff160217905550505600a165627a7a72305820b166f18abbe01a46e46f7cfc6ef22a7bb88b72cb0f7313025bbbc0cdf557f8070029",
  "source": "pragma solidity ^0.4.24;\r\n\r\nimport \"./Logic.sol\";\r\n\r\ncontract Proxy {\r\n  Logic public logic;\r\n\r\n  constructor (Logic _logic) public {\r\n    setLogic(_logic);\r\n  }\r\n\r\n  function calculate(uint a, uint b) view external returns (uint) {\r\n    return logic.calculate(a, b);\r\n  }\r\n\r\n  function upgrade(Logic _logic) external {\r\n    setLogic(_logic);\r\n  }\r\n\r\n  function setLogic(Logic _logic) internal {\r\n    logic = _logic;\r\n  }\r\n}\r\n",
  "sourcePath": "G:\\workspace\\test\\contracts\\Proxy.sol",
  "compiler": {
    "name": "solc",
    "version": "0.4.24+commit.e67f0147.Emscripten.clang"
  },
  "schemaVersion": "2.0.0",
  "updatedAt": "2018-06-02T18:12:42.945Z"
}